:020000040800F2
:1000000030040020010100081D0300086D020008F3
:100010009D020008490100085D070008000000007B
:1000200000000000000000000000000015040008AF
:100030004D010008000000001F030008290500080A
:100040001B0100081B0100081B0100081B01000820
:100050001B0100081B0100081B0100081B01000810
:100060001B0100081B0100081B0100081B01000800
:100070001B0100081B0100081B0100081B010008F0
:100080001B0100081B0100081B0100081B010008E0
:100090001B0100081B0100081B0100081B010008D0
:1000A0001B0100081B0100081B0100081B010008C0
:1000B0001B0100088D0500081B0100081B0100083A
:1000C0001B0100081B0100081B0100081B010008A0
:1000D0001B0100081B0100081B0100081B01000890
:1000E0001B0100081B0100081B010008DFF80CD0F1
:1000F00000F018F8004800471108000830040020FC
:100100000648804706480047FEE7FEE7FEE7FEE7B1
:10011000FEE7FEE7FEE7FEE7FEE7FEE72D05000847
:10012000ED000008064C074D06E0E06840F00103D2
:1001300094E8070098471034AC42F6D3FFF7DAFF93
:10014000440800086408000800BFFEE770472DE976
:10015000F04102460025002600200023002400274D
:1001600091F803C00CF00F0591F803C00CF0100CCF
:10017000BCF1000F03D091F802C04CEA050591F8DC
:1001800000C0BCF1000F31D0146800202BE04FF00C
:10019000010C0CFA00F3B1F800C00CEA03069E4211
:1001A00020D183004FF00F0C0CFA03F7BC4305FA83
:1001B00003FC4CEA040491F803C0BCF1280F06D1FB
:1001C0004FF0010C0CFA00FCC2F814C00AE091F8E0
:1001D00003C0BCF1480F05D14FF0010C0CFA00FC34
:1001E000C2F810C0401C0828D1D31460B1F800C078
:1001F000BCF1FF0F34DD546800202EE000F1080C44
:100200004FF0010808FA0CF3B1F800C00CEA03063D
:100210009E4221D183004FF00F0C0CFA03F7BC4330
:1002200005FA03FC4CEA040491F803C0BCF1280F62
:1002300005D100F1080C08FA0CF8C2F8148091F806
:1002400003C0BCF1480F07D100F1080C4FF00108C2
:1002500008FA0CF8C2F81080401C0828CED354606D
:10026000BDE8F081416170470161704700BFFEE762
:1002700008B50121042000F053F84FF48070ADF868
:10028000000010208DF8030003208DF8020069465D
:100290000148FFF75CFF08BD0008014000BFFEE712
:1002A00000B585B0012144F2040000F039F84FF4A4
:1002B0000070ADF8100018208DF8130003208DF8A1
:1002C000120004A91348FFF742FF4FF48060ADF815
:1002D000100004208DF8130004A90E48FFF737FF23
:1002E0004FF4165000900020ADF80C000C20ADF833
:1002F0000A000020ADF80800ADF80600ADF80400D3
:100300006946054800F09CF90121034800F07EF998
:1003100005B000BD0008014000380140704770473B
:1003200029B1064A92690243044B9A6104E0034AE8
:1003300092698243014B9A617047000000100240AD
:1003400030B500210022002400232D4D6D6805F0FA
:100350000C0121B1042905D0082923D105E0294D3C
:10036000056022E0274D05601FE0254D6D6805F40E
:100370007012234D6D6805F48034022505EB92421E
:100380001CB9214D554305600BE01D4D6D6805F40A
:1003900000351DB11C4D5543056002E0194D554314
:1003A000056002E0174D056000BF00BF144D6D6889
:1003B00005F0F0010909154D6B5C0568DD404560ED
:1003C0000F4D6D6805F4E061090A104D6B5C4568DE
:1003D000DD4085600A4D6D6805F46051C90A0B4D1A
:1003E0006B5C4568DD40C560054D6D6805F44041B6
:1003F000890B074D6B5CC568B5FBF3F5056130BD36
:100400000010024000127A0000093D001400002094
:1004100024000020704710B500F002F810BD000065
:100420000CB50020019000903348006840F4803003
:100430003149086000BF3048006800F40030009087
:100440000198401C0190009818B90198B0F5A06F70
:10045000F1D12948006800F4003010B1012000906B
:1004600001E0002000900098012843D12348006853
:1004700040F01000214908600846006820F00300A1
:1004800008600846006840F0020008601A484068AA
:10049000194948600846406848600846406840F48A
:1004A000806048600846406820F47C104860084638
:1004B000406840F4E81048600846006840F08070EA
:1004C000086000BF0C48006800F000700028F9D0F8
:1004D0000948406820F00300074948600846406822
:1004E00040F00200486000BF0348406800F00C0084
:1004F0000828F9D10CBD0000001002400020024085
:10050000042808D14FF0E021096941F004014FF0BF
:10051000E022116107E04FF0E021096921F00401B8
:100520004FF0E022116170477047000010B513488A
:10053000006840F001001149086008464068104911
:1005400008400E494860084600680E4908400B49BB
:1005500008600846006820F480200860084640686B
:1005600020F4FE0048604FF41F008860FFF753FF3F
:100570004FF000600449086010BD00000010024008
:100580000000FFF8FFFFF6FE08ED00E010B50121C6
:10059000114800F02AF8F0B11048007810B1012895
:1005A00014D10AE04FF480710D48FFF75BFE0B4851
:1005B0000078401C0949087008E04FF48071084831
:1005C000FFF752FE00200549087000BF00BF01215F
:1005D000014800F007F810BD000400402C00002086
:1005E00000080140CA430282704730B5024600202D
:1005F00000230024158A05EA0103958905EA010410
:1006000013B10CB1012000E0002030BD21B182897E
:1006100042F40052828104E082894DF6FF731A4051
:100620008281704702460020B1F5007F00D100BFF3
:1006300013880B400BB1012000E000207047000040
:100640002DE9F04786B005460E460024A24600BFBD
:10065000A1460027B08900B100BF2F462C8A4CF676
:10066000FF700440F08804432C82AC894EF6F310EE
:100670000440B08831890843718908430443AC8140
:10068000AC8A4FF6FF400440B0890443AC8201A815
:10069000FFF756FE1F48874202D1DDF810A001E0A7
:1006A000DDF80CA0A88900F4004040B10AEBCA00B4
:1006B00000EB0A1031684900B0FBF1F807E00AEBE3
:1006C000CA0000EB0A1031688900B0FBF1F8642021
:1006D000B8FBF0F004012009642101FB1089A8890E
:1006E00000F4004040B1322000EBC900B0FBF1F053
:1006F00000F00700044308E0322000EB09106421F9
:10070000B0FBF1F000F00F0004432C8106B0BDE80F
:10071000F08700000038014070B504460D46C5F36F
:100720000800A08000BF80212046FFF77BFF002843
:10073000F9D070BD70B505460C4604E014F8011BF5
:100740002846FFF7E9FF20780028F7D100BF4021B5
:100750002846FFF767FF0028F9D070BD00BFFEE70D
:1007600002E008C8121F08C1002AFAD1704770477A
:10077000002001E001C1121F002AFBD170470000D8
:1007800010B56FF00400FFF7BBFE0A4800680A4985
:10079000B0FBF1F0094908700846007800EB400111
:1007A000C1EBC0104FF6FF7101EAC0000449088098
:1007B00010BD00000000002000127A002800002078
:1007C0002A0000200146114A12884A434FF0E023D4
:1007D0005A6100229A611A46126942F001021A61B6
:1007E00000BF4FF0E022106900F001021AB100F4DE
:1007F0008032002AF5D04FF0E022126922F0010287
:100800004FF0E0231A6100229A6170472A0000200D
:10081000FFF72EFDFFF7B4FFFFF742FD07E004A14D
:100820000748FFF787FF4FF4FA70FFF7CBFFF6E7B3
:1008300048656C6C6F20576F726C64A3A100000058
:10084000003801406408000800000020300000006B
:100850006007000894080008300000200004000031
:100860007007000800A24A04000000000000000019
:100870000102030406070809000000000102030446
:10088000010203040607080902040608000000002C
:040890000000000064
:04000005080000ED02
:00000001FF
